:100000000C9463000C94AA010C94D7010C948B00FF
:100010000C948B000C948B000C948B000C940B03B1
:100020000C948B000C948B000C948B000C948B0024
:100030000C948B000C948B000C948B000C948B0014
:100040000C9404020C948B000C9467030C948B00AA
:100050000C948B000C948B000C948B000C948B00F4
:100060000C948B000C948B000000000024002700EF
:100070002A0000000000250028002B0000000000DE
:1000800023002600290004040404040404040202DA
:100090000202020203030303030301020408102007
:1000A0004080010204081020010204081020000012
:1000B0000007000201000003040600000000000029
:1000C00000000200060411241FBECFEFD8E0DEBFFF
:1000D000CDBF11E0A0E0B1E0EEEFF8E002C0059086
:1000E0000D92A631B107D9F711E0A6E1B1E001C048
:1000F0001D92A33CB107E1F710E0C6ECD0E004C0CC
:100100002297FE010E947904C43CD107C9F70E94DE
:10011000BB000C947D040C9400006091160170915A
:10012000170189E00E944A012091000130910101EC
:100130008091160190911701820F931F90931701E0
:1001400080931601009719F08F3F910541F488279D
:100150009927821B930B90930101809300016EE11C
:1001600070E080E090E00E947202089589E061E012
:100170000E94C20008950E9498020E94B6000E9448
:100180008D00FDCF482F50E0CA0186569F4FFC01DD
:1001900024914A575F4FFA0184918823C1F0E82FD8
:1001A000F0E0EE0FFF1FE859FF4FA591B4916623D1
:1001B00041F49FB7F8948C91209582238C939FBF34
:1001C00008959FB7F8948C91822B8C939FBF0895CC
:1001D000833071F0843028F48130A1F0823021F531
:1001E00014C08630B1F08730D1F08430E9F404C017
:1001F000809180008F7703C0809180008F7D8093F5
:100200008000089584B58F7702C084B58F7D84BD4A
:1002100008958091B0008F778093B0000895809109
:10022000B0008F7D8093B0000895FF920F931F93CD
:10023000F62E482F50E0CA0182559F4FFC012491B1
:10024000CA0186569F4FFC0114914A575F4FFA012D
:1002500004910023D9F0222319F0822F0E94E80094
:10026000E02FF0E0EE0FFF1FEE58FF4FA591B49185
:10027000FF2031F49FB7F8948C911095812304C02E
:100280009FB7F8948C91812B8C939FBF1F910F91F6
:10029000FF9008951F93CF93DF93182FEB0161E038
:1002A0000E94C200209709F44AC0CF3FD10509F44B
:1002B00049C0E12FF0E0E255FF4F84918330C1F057
:1002C000843028F4813051F08230B1F50CC0863092
:1002D00019F1873049F1843079F514C084B580680C
:1002E00084BDC7BD33C084B5806284BDC8BD2EC087
:1002F00080918000806880938000D0938900C093B3
:10030000880024C080918000806280938000D09318
:100310008B00C0938A001AC08091B00080688093DF
:10032000B000C093B30012C08091B000806280938F
:10033000B000C093B4000AC0C038D1051CF4812FAE
:1003400060E002C0812F61E00E941501DF91CF9132
:100350001F9108951F920F920FB60F9211242F93A1
:100360003F934F935F936F937F938F939F93AF933D
:10037000BF93EF93FF938091180190911901892BFE
:1003800029F0E0911801F09119010995FF91EF9181
:10039000BF91AF919F918F917F916F915F914F919D
:1003A0003F912F910F900FBE0F901F9018951F92A5
:1003B0000F920FB60F9211242F933F934F935F9399
:1003C0006F937F938F939F93AF93BF93EF93FF931D
:1003D00080911A0190911B01892B29F0E0911A015B
:1003E000F0911B010995FF91EF91BF91AF919F9102
:1003F0008F917F916F915F914F913F912F910F90CE
:100400000FBE0F901F9018951F920F920FB60F926C
:1004100011242F933F938F939F93AF93BF9380911A
:10042000200190912101A0912201B09123013091EE
:1004300024010196A11DB11D232F2D5F2D3720F022
:100440002D570196A11DB11D2093240180932001F9
:1004500090932101A0932201B093230180911C016C
:1004600090911D01A0911E01B0911F010196A11D47
:10047000B11D80931C0190931D01A0931E01B093A8
:100480001F01BF91AF919F918F913F912F910F903D
:100490000FBE0F901F9018959FB7F89420911C01E4
:1004A00030911D0140911E0150911F0186B5A89BFE
:1004B00006C08F3F21F02F5F3F4F4F4F5F4F9FBFD1
:1004C000542F432F322F2227280F311D411D511D3C
:1004D00082E0220F331F441F551F8A95D1F7B901BF
:1004E000CA010895EF92FF920F931F93CF93DF936A
:1004F0007B018C010E944C02EB010EC00E944C0259
:100500006C1B7D0B685E7340C8F30894E108F1082A
:1005100001091109C851DC4FE114F104010511056D
:1005200069F7DF91CF911F910F91FF90EF900895A0
:10053000789484B5826084BD84B5816084BD85B5BE
:10054000826085BD85B5816085BDEEE6F0E0808185
:1005500081608083E1E8F0E01082808182608083A6
:10056000808181608083E0E8F0E080818160808329
:10057000E1EBF0E0808184608083E0EBF0E080815B
:1005800081608083EAE7F0E08081846080838081FD
:1005900082608083808181608083808180688083A5
:1005A0001092C1000895813041F0813018F08230FE
:1005B000D1F409C010926E00089580916F008D7F74
:1005C00080936F000895809170008D7F80937000FC
:1005D00081E08093B0008091B100887F8460809337
:1005E000B1001092B30008951F93182F809102015B
:1005F000811711F09FEF06C0E2ECF0E094918FEFCD
:1006000080930201892F0E94D302812F60E00E9413
:1006100015011F9108951F920F920FB60F9211248A
:100620002F933F934F935F936F937F938F939F93FA
:10063000AF93BF93EF93FF93809125019091260193
:10064000A0912701B09128010097A105B10551F1B2
:10065000E0912901F0912A01808190912B01892755
:1006600080838091250190912601A0912701B0916E
:100670002801181619061A061B06C4F480912501D4
:1006800090912601A0912701B09128010197A1091D
:10069000B1098093250190932601A0932701B0937F
:1006A000280104C0809102010E94F402FF91EF91A1
:1006B000BF91AF919F918F917F916F915F914F917A
:1006C0003F912F910F900FBE0F901F9018951F9282
:1006D0000F920FB60F9211242F933F934F938F9346
:1006E0009F93EF93FF934091C600E091AC01F0918E
:1006F000AD0131969F012F77307031978091AE0117
:100700009091AF012817390739F0E45DFE4F40831F
:100710003093AD012093AC01FF91EF919F918F91A8
:100720004F913F912F910F900FBE0F901F901895F2
:10073000DC011296ED91FC911397E058FF4F219147
:10074000319180819181281B390B2F773070C9013D
:100750000895DC011296ED91FC911397EE57FF4F2F
:100760002081318192918291E058F0408217930765
:1007700019F42FEF3FEF05C0E20FF31F8081282F00
:1007800030E0C9010895DC011296ED91FC911397B8
:10079000DF01AE57BF4F2D913C911197E058FF4FAD
:1007A00080819181E058F0408217930719F42FEF70
:1007B0003FEF0BC0E20FF31F80812F5F3F4F2F777A
:1007C00030702D933C93282F30E0C9010895DC014F
:1007D0001296ED91FC911397EE57FF4F8081918116
:1007E000929382930895FC01A085B18521898C9113
:1007F00090E0022E02C0959587950A94E2F780FF5B
:10080000F6CF0484F585E02D6083089587E091E0BC
:100810009093B1018093B0018CE291E09093B30189
:100820008093B20185EC90E09093B5018093B40180
:1008300084EC90E09093B7018093B60180EC90E057
:100840009093B9018093B80181EC90E09093BB0143
:100850008093BA0186EC90E09093BD018093BC0137
:1008600084E08093BE0183E08093BF0187E08093A2
:10087000C00185E08093C10181E08093C2010895A9
:100880000F931F93CF93DF938C01EB0109C0219647
:10089000D801ED91FC910190F081E02DC8010995FE
:1008A00068816623A1F7DF91CF911F910F91089581
:1008B000EF92FF920F931F93CF93DF938C017B01F5
:1008C000EA010CC0D7016D917D01D801ED91FC9139
:1008D0000190F081E02DC80109952197209791F7AB
:1008E000DF91CF911F910F91FF90EF900895EE0F40
:0E08F000FF1F0590F491E02D0994F894FFCFBE
:1008FE000500FF00000000F303400458049803C3F2
:06090E0003A903E703004A
:00000001FF
