:100000000C9463000C94B0010C94DD010C948B00F3
:100010000C948B000C948B000C948B000C941103AB
:100020000C948B000C948B000C948B000C948B0024
:100030000C948B000C948B000C948B000C948B0014
:100040000C940A020C948B000C946D030C948B009E
:100050000C948B000C948B000C948B000C948B00F4
:100060000C948B000C948B000000000024002700EF
:100070002A0000000000250028002B0000000000DE
:1000800023002600290004040404040404040202DA
:100090000202020203030303030301020408102007
:1000A0004080010204081020010204081020000012
:1000B0000007000201000003040600000000000029
:1000C000000002000C0411241FBECFEFD8E0DEBFF9
:1000D000CDBF11E0A0E0B1E0EAE1F9E002C0059097
:1000E0000D92AC31B107D9F711E0ACE1B1E001C03C
:1000F0001D92A93CB107E1F710E0C6ECD0E004C0C6
:100100002297FE010E948704C43CD107C9F70E94D0
:10011000C1000C948B040C94000086EB91E060E02D
:1001200071E00E947D0460911C0170911D0189E0C5
:100130000E945001209106013091070180911C011D
:1001400090911D01820F931F90931D0180931C01BC
:10015000009719F08F3F910541F488279927821B5A
:10016000930B90930701809306016EE170E080E0AD
:1001700090E00E947802089589E061E00E94C80042
:1001800008950E949E020E94BC000E948D00FDCF37
:10019000482F50E0CA0186569F4FFC0124914A57D0
:1001A0005F4FFA0184918823C1F0E82FF0E0EE0F51
:1001B000FF1FE859FF4FA591B491662341F49FB703
:1001C000F8948C91209582238C939FBF08959FB7BC
:1001D000F8948C91822B8C939FBF0895833071F09B
:1001E000843028F48130A1F0823021F514C08630AB
:1001F000B1F08730D1F08430E9F404C08091800000
:100200008F7703C0809180008F7D80938000089558
:1002100084B58F7702C084B58F7D84BD08958091A9
:10022000B0008F778093B00008958091B0008F7DEB
:100230008093B0000895FF920F931F93F62E482FDE
:1002400050E0CA0182559F4FFC012491CA01865695
:100250009F4FFC0114914A575F4FFA01049100230C
:10026000D9F0222319F0822F0E94EE00E02FF0E057
:10027000EE0FFF1FEE58FF4FA591B491FF2031F410
:100280009FB7F8948C911095812304C09FB7F89480
:100290008C91812B8C939FBF1F910F91FF9008959C
:1002A0001F93CF93DF93182FEB0161E00E94C800EA
:1002B000209709F44AC0CF3FD10509F449C0E12F86
:1002C000F0E0E255FF4F84918330C1F0843028F490
:1002D000813051F08230B1F50CC0863019F1873091
:1002E00049F1843079F514C084B5806884BDC7BDF8
:1002F00033C084B5806284BDC8BD2EC080918000AB
:10030000806880938000D0938900C093880024C0C7
:1003100080918000806280938000D0938B00C09396
:100320008A001AC08091B00080688093B000C093AA
:10033000B30012C08091B00080628093B000C0937F
:10034000B4000AC0C038D1051CF4812F60E002C09F
:10035000812F61E00E941B01DF91CF911F910895D1
:100360001F920F920FB60F9211242F933F934F932A
:100370005F936F937F938F939F93AF93BF93EF930D
:10038000FF9380911E0190911F01892B29F0E0912C
:100390001E01F0911F010995FF91EF91BF91AF915F
:1003A0009F918F917F916F915F914F913F912F918D
:1003B0000F900FBE0F901F9018951F920F920FB6BF
:1003C0000F9211242F933F934F935F936F937F93DB
:1003D0008F939F93AF93BF93EF93FF9380912001EF
:1003E00090912101892B29F0E0912001F0912101C8
:1003F0000995FF91EF91BF91AF919F918F917F915F
:100400006F915F914F913F912F910F900FBE0F9081
:100410001F9018951F920F920FB60F9211242F93D1
:100420003F938F939F93AF93BF93809126019091B9
:100430002701A0912801B091290130912A0101964C
:10044000A11DB11D232F2D5F2D3720F02D570196B3
:10045000A11DB11D20932A018093260190932701AD
:10046000A0932801B093290180912201909123014A
:10047000A0912401B09125010196A11DB11D809389
:10048000220190932301A0932401B0932501BF91F1
:10049000AF919F918F913F912F910F900FBE0F9031
:1004A0001F9018959FB7F894209122013091230155
:1004B000409124015091250186B5A89B06C08F3F2D
:1004C00021F02F5F3F4F4F4F5F4F9FBF542F432F60
:1004D000322F2227280F311D411D511D82E0220F8E
:1004E000331F441F551F8A95D1F7B901CA010895DA
:1004F000EF92FF920F931F93CF93DF937B018C01B9
:100500000E945202EB010EC00E9452026C1B7D0B36
:10051000685E7340C8F30894E108F1080109110905
:10052000C851DC4FE114F1040105110569F7DF91B1
:10053000CF911F910F91FF90EF900895789484B51B
:10054000826084BD84B5816084BD85B5826085BDCF
:1005500085B5816085BDEEE6F0E0808181608083B5
:10056000E1E8F0E010828081826080838081816098
:100570008083E0E8F0E0808181608083E1EBF0E05F
:10058000808184608083E0EBF0E080818160808303
:10059000EAE7F0E0808184608083808182608083EC
:1005A0008081816080838081806880831092C10017
:1005B0000895813041F0813018F08230D1F409C0C3
:1005C00010926E00089580916F008D7F80936F0070
:1005D0000895809170008D7F8093700081E08093FA
:1005E000B0008091B100887F84608093B100109248
:1005F000B30008951F93182F80910801811711F0FF
:100600009FEF06C0E2ECF0E094918FEF8093080139
:10061000892F0E94D902812F60E00E941B011F9147
:1006200008951F920F920FB60F9211242F933F93AC
:100630004F935F936F937F938F939F93AF93BF93EA
:10064000EF93FF9380912B0190912C01A0912D01AC
:10065000B0912E010097A105B10551F1E0912F0154
:10066000F0913001808190913101892780838091C0
:100670002B0190912C01A0912D01B0912E01181603
:1006800019061A061B06C4F480912B0190912C01C7
:10069000A0912D01B0912E010197A109B10980937C
:1006A0002B0190932C01A0932D01B0932E0104C037
:1006B000809108010E94FA02FF91EF91BF91AF91E2
:1006C0009F918F917F916F915F914F913F912F916A
:1006D0000F900FBE0F901F9018951F920F920FB69C
:1006E0000F9211242F933F934F938F939F93EF93E8
:1006F000FF934091C600E091B201F091B3013196B1
:100700009F012F77307031978091B4019091B5019E
:100710002817390739F0EE5CFE4F40833093B30160
:100720002093B201FF91EF919F918F914F913F9153
:100730002F910F900FBE0F901F901895DC0112960D
:10074000ED91FC911397E058FF4F219131918081F9
:100750009181281B390B2F773070C9010895DC0176
:100760001296ED91FC911397EE57FF4F2081318146
:1007700092918291E058F0408217930719F42FEF7D
:100780003FEF05C0E20FF31F8081282F30E0C90141
:100790000895DC011296ED91FC911397DF01AE579D
:1007A000BF4F2D913C911197E058FF4F808191816F
:1007B000E058F0408217930719F42FEF3FEF0BC07A
:1007C000E20FF31F80812F5F3F4F2F7730702D9303
:1007D0003C93282F30E0C9010895DC011296ED9179
:1007E000FC911397EE57FF4F8081918192938293F2
:1007F0000895FC01A085B18521898C9190E0022E9D
:1008000002C0959587950A94E2F780FFF6CF04849D
:10081000F585E02D608308958DE091E09093B70118
:100820008093B60182E391E09093B9018093B8017F
:1008300085EC90E09093BB018093BA0184EC90E04A
:100840009093BD018093BC0180EC90E09093BF0138
:100850008093BE0181EC90E09093C1018093C00130
:1008600086EC90E09093C3018093C20184E0809372
:10087000C40183E08093C50187E08093C60185E0D1
:100880008093C70181E08093C80108950F931F935F
:10089000CF93DF938C01EB0109C02196D801ED9134
:1008A000FC910190F081E02DC801099568816623D3
:1008B000A1F7DF91CF911F910F910895EF92FF92D1
:1008C0000F931F93CF93DF938C017B01EA010CC040
:1008D000D7016D917D01D801ED91FC910190F081DE
:1008E000E02DC80109952197209791F7DF91CF91CD
:1008F0001F910F91FF90EF900895DC01ED91FC9115
:100900000280F381E02D09950895EE0FFF1F0590F9
:0A091000F491E02D0994F894FFCF54
:10091A006473667364000500FF00000000F9034673
:0C092A00045E049E03C903AF03ED03004C
:00000001FF
