:100000000C9463000C9412020C943F020C948B002D
:100010000C948B000C948B000C948B000C94730349
:100020000C948B000C948B000C948B000C948B0024
:100030000C948B000C948B000C948B000C948B0014
:100040000C946C020C948B000C9418040C948B0090
:100050000C948B000C948B000C948B000C948B00F4
:100060000C948B000C948B000000000024002700EF
:100070002A0000000000250028002B0000000000DE
:1000800023002600290004040404040404040202DA
:100090000202020203030303030301020408102007
:1000A0004080010204081020010204081020000012
:1000B0000007000201000003040600000000000029
:1000C00000000200140511241FBECFEFD8E0DEBFF0
:1000D000CDBF11E0A0E0B1E0E8E0FEE002C0059095
:1000E0000D92AA32B107D9F711E0AAE2B1E001C03E
:1000F0001D92A93DB107E1F710E0C6ECD0E004C0C5
:100100002297FE010E94FE06C43CD107C9F70E9457
:1001100001010C9402070C940000AF92BF92CF92A1
:10012000DF92EF92FF920F931F938EE00E94900157
:1001300090932B0180932A0100D000D0AA2797FD2D
:10014000A095BA2F2FEF30E040E050E0EDB7FEB7BA
:100150002183328343835483BC01CD0120E030E00E
:1001600040E050E0EFEFEE2EE3E0FE2E012D112DEA
:10017000AA24BB2465010E94CF039B01AC017093AC
:100180002D0160932C010F900F900F900F9089E03C
:10019000B9010E94B20106EC11E0C80160E071E013
:1001A0000E94850560912A0170912B01C8014AE0E7
:1001B00050E00E945B06C8016AE071E00E9485057C
:1001C00060912C0170912D01C8014AE050E00E941D
:1001D00085066AE070E080E090E00E94DA021F91FC
:1001E0000F91FF90EF90DF90CF90BF90AF90089568
:1001F00086EC91E040E855E260E070E00E9449043E
:1002000008950E9400030E94F8000E948D00FDCF17
:10021000482F50E0CA0186569F4FFC0124914A574F
:100220005F4FFA0184918823C1F0E82FF0E0EE0FD0
:10023000FF1FE859FF4FA591B491662341F49FB782
:10024000F8948C91209582238C939FBF08959FB73B
:10025000F8948C91822B8C939FBF0895833071F01A
:10026000843028F48130A1F0823021F514C086302A
:10027000B1F08730D1F08430E9F404C0809180007F
:100280008F7703C0809180008F7D809380000895D8
:1002900084B58F7702C084B58F7D84BD0895809129
:1002A000B0008F778093B00008958091B0008F7D6B
:1002B0008093B0000895FF920F931F93F62E482F5E
:1002C00050E0CA0182559F4FFC012491CA01865615
:1002D0009F4FFC0114914A575F4FFA01049100238C
:1002E000D9F0222319F0822F0E942E01E02FF0E096
:1002F000EE0FFF1FEE58FF4FA591B491FF2031F490
:100300009FB7F8948C911095812304C09FB7F894FF
:100310008C91812B8C939FBF1F910F91FF9008951B
:10032000982F8E3008F09E5097708091160182951C
:10033000880F880F807C892B80937C0080917A00C5
:10034000806480937A0080917A0086FDFCCF2091B2
:10035000780040917900942F80E030E0282B392BF1
:10036000C90108951F93CF93DF93182FEB0161E02C
:100370000E940801209709F44AC0CF3FD10509F433
:1003800049C0E12FF0E0E255FF4F84918330C1F086
:10039000843028F4813051F08230B1F50CC08630C1
:1003A00019F1873049F1843079F514C084B580683B
:1003B00084BDC7BD33C084B5806284BDC8BD2EC0B6
:1003C00080918000806880938000D0938900C093E2
:1003D000880024C080918000806280938000D09348
:1003E0008B00C0938A001AC08091B000806880930F
:1003F000B000C093B30012C08091B00080628093BF
:10040000B000C093B4000AC0C038D1051CF4812FDD
:1004100060E002C0812F61E00E945B01DF91CF911B
:100420001F9108951F920F920FB60F9211242F93D0
:100430003F934F935F936F937F938F939F93AF936C
:10044000BF93EF93FF9380912E0190912F01892B01
:1004500029F0E0912E01F0912F010995FF91EF9184
:10046000BF91AF919F918F917F916F915F914F91CC
:100470003F912F910F900FBE0F901F9018951F92D4
:100480000F920FB60F9211242F933F934F935F93C8
:100490006F937F938F939F93AF93BF93EF93FF934C
:1004A0008091300190913101892B29F0E091300148
:1004B000F09131010995FF91EF91BF91AF919F911B
:1004C0008F917F916F915F914F913F912F910F90FD
:1004D0000FBE0F901F9018951F920F920FB60F929C
:1004E00011242F933F938F939F93AF93BF9380914A
:1004F000360190913701A0913801B09139013091C6
:100500003A010196A11DB11D232F2D5F2D3720F03B
:100510002D570196A11DB11D20933A0180933601FC
:1005200090933701A0933801B09339018091320143
:1005300090913301A0913401B09135010196A11D34
:10054000B11D8093320190933301A0933401B09395
:100550003501BF91AF919F918F913F912F910F9056
:100560000FBE0F901F9018959FB7F89420913201FD
:1005700030913301409134015091350186B5A89BEB
:1005800006C08F3F21F02F5F3F4F4F4F5F4F9FBF00
:10059000542F432F322F2227280F311D411D511D6B
:1005A00082E0220F331F441F551F8A95D1F7B901EE
:1005B000CA010895EF92FF920F931F93CF93DF9399
:1005C0007B018C010E94B402EB010EC00E94B402B8
:1005D0006C1B7D0B685E7340C8F30894E108F1085A
:1005E00001091109C851DC4FE114F104010511059D
:1005F00069F7DF91CF911F910F91FF90EF900895D0
:10060000789484B5826084BD84B5816084BD85B5ED
:10061000826085BD85B5816085BDEEE6F0E08081B4
:1006200081608083E1E8F0E01082808182608083D5
:10063000808181608083E0E8F0E080818160808358
:10064000E1EBF0E0808184608083E0EBF0E080818A
:1006500081608083EAE7F0E080818460808380812C
:1006600082608083808181608083808180688083D4
:100670001092C1000895813041F0813018F082302D
:10068000D1F409C010926E00089580916F008D7FA3
:1006900080936F000895809170008D7F809370002B
:1006A00081E08093B0008091B100887F8460809366
:1006B000B1001092B30008951F93182F8091170175
:1006C000811711F09FEF06C0E2ECF0E094918FEFFC
:1006D00080931701892F0E943B03812F60E00E94C5
:1006E0005B011F9108951F920F920FB60F92112474
:1006F0002F933F934F935F936F937F938F939F932A
:10070000AF93BF93EF93FF9380913B0190913C0196
:10071000A0913D01B0913E010097A105B10551F1B5
:10072000E0913F01F0914001808190914101892742
:10073000808380913B0190913C01A0913D01B0915B
:100740003E01181619061A061B06C4F480913B01D7
:1007500090913C01A0913D01B0913E010197A1090A
:10076000B10980933B0190933C01A0933D01B0936C
:100770003E0104C0809117010E945C03FF91EF913C
:10078000BF91AF919F918F917F916F915F914F91A9
:100790003F912F910F900FBE0F901F9018952F92A1
:1007A0003F924F925F926F927F928F929F92AF9201
:1007B000BF92CF92DF92EF92FF920F931F93DF933E
:1007C000CF93CDB7DEB73B014C0119012A016D89EA
:1007D0007E898F89988D6A197B098C099D09621A17
:1007E000730A840A950AA40193010E94A006E218E4
:1007F000F30804091509A80197010E94E1062A0DD2
:100800003B1D4C1D5D1DB901CA01CF91DF911F91A8
:100810000F91FF90EF90DF90CF90BF90AF909F909F
:100820008F907F906F905F904F903F902F900895A2
:100830001F920F920FB60F9211242F933F934F9355
:100840008F939F93EF93FF934091C600E091C20175
:10085000F091C30131969F012F77307031978091CD
:10086000C4019091C5012817390739F0EE5BFE4F9E
:1008700040833093C3012093C201FF91EF919F9178
:100880008F914F913F912F910F900FBE0F901F901E
:100890001895CF93DF93EC019A01AB01E885F985B8
:1008A000203081EE380780E0480780E0580709F4DF
:1008B00049C081E090E00A8802C0880F991F0A941D
:1008C000E2F7808360E079E08DE390E00E94E1064A
:1008D0002150304040405040CA01B90122E030E090
:1008E00040E050E00E94E106EC81FD813083EE8122
:1008F000FF812083EA85FB85208141E050E0CA0129
:100900000E8402C0880F991F0A94E2F7282B2083D7
:10091000EA85FB852081CA010F8402C0880F991FD8
:100920000A94E2F7282B2083EA85FB8580810888DA
:1009300002C0440F551F0A94E2F7842B8083DF9195
:10094000CF910895108220E130E0CECFDC011296E5
:10095000ED91FC911397E058FF4F219131918081E7
:100960009181281B390B2F773070C9010895DC0164
:100970001296ED91FC911397EE57FF4F2081318134
:1009800092918291E058F0408217930719F42FEF6B
:100990003FEF05C0E20FF31F8081282F30E0C9012F
:1009A0000895DC011296ED91FC911397DF01AE578B
:1009B000BF4F2D913C911197E058FF4F808191815D
:1009C000E058F0408217930719F42FEF3FEF0BC068
:1009D000E20FF31F80812F5F3F4F2F7730702D93F1
:1009E0003C93282F30E0C9010895DC011296ED9167
:1009F000FC911397EE57FF4F8081918192938293E0
:100A00000895FC01A085B18521898C9190E0022E8A
:100A100002C0959587950A94E2F780FFF6CF04848B
:100A2000F585E02D608308958CE191E09093C701F6
:100A30008093C60182E491E09093C9018093C8013C
:100A400085EC90E09093CB018093CA0184EC90E018
:100A50009093CD018093CC0180EC90E09093CF01F6
:100A60008093CE0181EC90E09093D1018093D001EE
:100A700086EC90E09093D3018093D20184E0809340
:100A8000D40183E08093D50187E08093D60185E08F
:100A90008093D70181E08093D80108950F931F932D
:100AA000CF93DF938C01EB0109C02196D801ED9122
:100AB000FC910190F081E02DC801099568816623C1
:100AC000A1F7DF91CF911F910F910895EF92FF92BF
:100AD0000F931F93CF93DF938C017B01EA010CC02E
:100AE000D7016D917D01D801ED91FC910190F081CC
:100AF000E02DC80109952197209791F7DF91CF91BB
:100B00001F910F91FF90EF900895DC01ED91FC9102
:100B10000280F381E02D099508952F923F924F9224
:100B20005F926F927F928F929F92AF92BF92CF927D
:100B3000DF92EF92FF920F931F93DF93CF93CDB786
:100B4000DEB7A0970FB6F894DEBF0FBECDBF1C0175
:100B50006A017B01411551056105710549F440E3C6
:100B600050E060E070E020E030E00E94250654C0D4
:100B7000882499245401422E55246624772401E0C8
:100B800010E00C0F1D1F080D191DC701B601A301B0
:100B900092010E94BF06F80160830894811C911C99
:100BA000A11CB11CC701B601A30192010E94BF069E
:100BB000C901DA016C017D01C114D104E104F10421
:100BC000F1F681E0E82EF12CEC0EFD1EE80CF91C8C
:100BD0003E010894611C711CD501C4010197A10953
:100BE000B1096C01C818D90814C0F601EE0DFF1D3B
:100BF00040814A3010F4405D01C0495C50E060E043
:100C000070E0C10120E030E00E9425060894E10870
:100C1000F1086E147F0449F7A0960FB6F894DEBF72
:100C20000FBECDBFCF91DF911F910F91FF90EF903D
:100C3000DF90CF90BF90AF909F908F907F906F90FC
:100C40005F904F903F902F900895EF92FF920F93F7
:100C50001F93CF93DF93EC017A018B0121153105AE
:100C600041F4E881F9810190F081E02D642F09952C
:100C70001BC02A303105B1F477FF10C04DE250E0BF
:100C800060E070E020E030E00E94250610950095BD
:100C9000F094E094E11CF11C011D111DCE01B8017E
:100CA000A7012AE00E948D05DF91CF911F910F913E
:100CB000FF90EF900895EF92FF920F931F937B01A7
:100CC0009A010027F7FC0095102FB801A7010E9498
:100CD00025061F910F91FF90EF9008950F931F939A
:100CE0008C014DE050E060E070E020E030E00E94D8
:100CF0002506C8014AE050E060E070E020E030E006
:100D00000E9425061F910F910895CF92DF92EF92D6
:100D1000FF920F931F938C016B019A01EE24D7FC75
:100D2000E094FE2CB701A6010E942506C8010E948E
:100D30006E061F910F91FF90EF90DF90CF90089576
:100D4000629FD001739FF001829FE00DF11D649FAF
:100D5000E00DF11D929FF00D839FF00D749FF00D3B
:100D6000659FF00D9927729FB00DE11DF91F639FDC
:100D7000B00DE11DF91FBD01CF0111240895A1E2BD
:100D80001A2EAA1BBB1BFD010DC0AA1FBB1FEE1F05
:100D9000FF1FA217B307E407F50720F0A21BB30B50
:100DA000E40BF50B661F771F881F991F1A9469F7CC
:100DB00060957095809590959B01AC01BD01CF0128
:100DC000089597FB092E05260ED057FD04D0D7DFD6
:100DD0000AD0001C38F450954095309521953F4F2E
:100DE0004F4F5F4F0895F6F79095809570956195F8
:100DF0007F4F8F4F9F4F0895EE0FFF1F0590F49187
:080E0000E02D0994F894FFCFE6
:100E080073656E736F72203D200009206F757470D2
:100E18007574203D200001FF0000000001054E050B
:0A0E28006605A604D104B704F50422
:00000001FF
