:100000000C9463000C94F2000C941F010C948B0070
:100010000C948B000C948B000C948B000C940702B6
:100020000C948B000C948B000C948B000C948B0024
:100030000C948B000C948B000C948B000C948B0014
:100040000C944C010C948B000C9463020C948B0068
:100050000C948B000C948B000C948B000C948B00F4
:100060000C948B000C948B000000000024002700EF
:100070002A0000000000250028002B0000000000DE
:1000800023002600290004040404040404040202DA
:100090000202020203030303030301020408102007
:1000A0004080010204081020010204081020000012
:1000B0000007000201000003040600000000000029
:1000C00000000200020311241FBECFEFD8E0DEBF04
:1000D000CDBF11E0A0E0B1E0E6EFF6E002C0059090
:1000E0000D92A431B107D9F711E0A4E1B1E001C04C
:1000F0001D92AF3BB107E1F710E0C6ECD0E004C0C1
:100100002297FE010E947503C43CD107C9F70E94E3
:100110008D000C9479030C9400000E949401FFCF91
:10012000833071F0843028F48130A1F0823021F5E1
:1001300014C08630B1F08730D1F08430E9F404C0C7
:10014000809180008F7703C0809180008F7D8093A5
:100150008000089584B58F7702C084B58F7D84BDFB
:1001600008958091B0008F778093B00008958091BA
:10017000B0008F7D8093B0000895FF920F931F937E
:10018000F62E482F50E0CA0182559F4FFC01249162
:10019000CA0186569F4FFC0114914A575F4FFA01DE
:1001A00004910023D9F0222319F0822F0E9490009D
:1001B000E02FF0E0EE0FFF1FEE58FF4FA591B49136
:1001C000FF2031F49FB7F8948C911095812304C0DF
:1001D0009FB7F8948C91812B8C939FBF1F910F91A7
:1001E000FF9008951F920F920FB60F9211242F9334
:1001F0003F934F935F936F937F938F939F93AF93AF
:10020000BF93EF93FF938091140190911501892B77
:1002100029F0E0911401F09115010995FF91EF91FA
:10022000BF91AF919F918F917F916F915F914F910E
:100230003F912F910F900FBE0F901F9018951F9216
:100240000F920FB60F9211242F933F934F935F930A
:100250006F937F938F939F93AF93BF93EF93FF938E
:100260008091160190911701892B29F0E0911601D8
:10027000F09117010995FF91EF91BF91AF919F9177
:100280008F917F916F915F914F913F912F910F903F
:100290000FBE0F901F9018951F920F920FB60F92DE
:1002A00011242F933F938F939F93AF93BF9380918C
:1002B0001C0190911D01A0911E01B0911F01309170
:1002C00020010196A11DB11D232F2D5F2D3720F098
:1002D0002D570196A11DB11D2093200180931C0173
:1002E00090931D01A0931E01B0931F0180911801EE
:1002F00090911901A0911A01B0911B010196A11DC5
:10030000B11D8093180190931901A0931A01B09325
:100310001B01BF91AF919F918F913F912F910F90B2
:100320000FBE0F901F901895789484B5826084BD9D
:1003300084B5816084BD85B5826085BD85B58160E9
:1003400085BDEEE6F0E0808181608083E1E8F0E049
:100350001082808182608083808181608083E0E878
:10036000F0E0808181608083E1EBF0E08081846057
:100370008083E0EBF0E0808181608083EAE7F0E059
:1003800080818460808380818260808380818160BD
:1003900080838081806880831092C10008958130BD
:1003A00041F0813018F08230D1F409C010926E0013
:1003B000089580916F008D7F80936F0008958091E4
:1003C00070008D7F8093700081E08093B0008091F9
:1003D000B100887F84608093B1001092B3000895CB
:1003E0001F93182F80910001811711F09FEF06C015
:1003F000E2ECF0E094918FEF80930001892F0E944E
:10040000CF01812F60E00E94BD001F9108951F92CF
:100410000F920FB60F9211242F933F934F935F9338
:100420006F937F938F939F93AF93BF93EF93FF93BC
:100430008091210190912201A0912301B09124018A
:100440000097A105B10551F1E0912501F091260138
:10045000808190912701892780838091210190914B
:100460002201A0912301B0912401181619061A0641
:100470001B06C4F48091210190912201A0912301D7
:10048000B09124010197A109B109809321019093B2
:100490002201A0932301B093240104C080910001A4
:1004A0000E94F001FF91EF91BF91AF919F918F91C9
:1004B0007F916F915F914F913F912F910F900FBE60
:1004C0000F901F9018951F920F920FB60F92112444
:1004D0002F933F934F938F939F93EF93FF9340916D
:1004E000C600E091A801F091A90131969F012F77F4
:1004F000307031978091AA019091AB01281739078C
:1005000039F0E85DFE4F40833093A9012093A801A4
:10051000FF91EF919F918F914F913F912F910F906C
:100520000FBE0F901F901895DC011296ED91FC9173
:100530001397E058FF4F2191319180819181281BC1
:10054000390B2F773070C9010895DC011296ED91B7
:10055000FC911397EE57FF4F208131819291829148
:10056000E058F0408217930719F42FEF3FEF05C0D2
:10057000E20FF31F8081282F30E0C9010895DC01CC
:100580001296ED91FC911397DF01AE57BF4F2D915D
:100590003C911197E058FF4F80819181E058F040E5
:1005A0008217930719F42FEF3FEF0BC0E20FF31FF1
:1005B00080812F5F3F4F2F7730702D933C93282FF2
:1005C00030E0C9010895DC011296ED91FC9113977A
:1005D000EE57FF4F80819181929382930895FC01A1
:1005E000A085B18521898C9190E0022E02C095955D
:1005F00087950A94E2F780FFF6CF0484F585E02D15
:100600006083089585E091E09093AD018093AC0103
:1006100088E291E09093AF018093AE0185EC90E089
:100620009093B1018093B00184EC90E09093B3017A
:100630008093B20180EC90E09093B5018093B40177
:1006400081EC90E09093B7018093B60186EC90E046
:100650009093B9018093B80184E08093BA0183E05C
:100660008093BB0187E08093BC0185E08093BD014E
:1006700081E08093BE0108950F931F93CF93DF9382
:100680008C01EB0109C02196D801ED91FC910190FC
:10069000F081E02DC801099568816623A1F7DF91FB
:1006A000CF911F910F910895EF92FF920F931F9397
:1006B000CF93DF938C017B01EA010CC0D7016D91D0
:1006C0007D01D801ED91FC910190F081E02DC801F0
:1006D00009952197209791F7DF91CF911F910F9165
:1006E000FF90EF900895EE0FFF1F0590F491E02D1D
:0606F0000994F894FFCF0D
:1006F600FF00000000EF023C0354039402BF02A572
:0407060002E3020008
:00000001FF
