:100000000C9463000C9479020C94A6020C948B005F
:100010000C948B000C948B000C948B000C948E032E
:100020000C948B000C948B000C948B000C948B0024
:100030000C948B000C948B000C948B000C948B0014
:100040000C94D3020C948B000C9433040C948B000E
:100050000C948B000C948B000C948B000C948B00F4
:100060000C948B000C948B000000000024002700EF
:100070002A0000000000250028002B0000000000DE
:1000800023002600290004040404040404040202DA
:100090000202020203030303030301020408102007
:1000A0004080010204081020010204081020000012
:1000B0000007000201000003040600000000000029
:1000C000000002002F0511241FBECFEFD8E0DEBFD5
:1000D000CDBF11E0A0E0B1E0E8E0FCE002C0059097
:1000E0000D92A833B107D9F712E0A8E3B1E001C03F
:1000F0001D92A336B107E1F710E0C6ECD0E004C0D2
:100100002297FE010E94FE05C43CD107C9F70E9458
:10011000C8010C9402060C9400008F929F92AF923B
:10012000BF92CF92DF92EF92FF920F931F93CF93E4
:10013000DF9326E0A22E21E0B22ECC24DD24F501AF
:100140008080882D61E00E942202E60194E0CC0FBD
:10015000DD1F9A95E1F7C85CDE4F86E1E82E81E06D
:10016000F82E08811981F7019080892D602F0E9457
:100170002202012B21F4892D61E00E9422022296A5
:1001800082E090E0E80EF91E96E2E91691E0F906A9
:1001900041F7882D60E00E9422020894C11CD11C06
:1001A000E2E0F0E0AE0EBF1EF8E0CF16D10439F663
:1001B000DF91CF911F910F91FF90EF90DF90CF9043
:1001C000BF90AF909F908F9008954F925F926F92E3
:1001D0007F928F929F92AF92BF92CF92DF92EF92D7
:1001E000FF920F931F93E0910001F091010113E042
:1001F000EE0FFF1F1A95E1F7809102019091030124
:10020000E80FF91FB8E34B2EB1E05B2EEE0FFF1F96
:10021000E40DF51D81E090E0918380838EE00E94E3
:10022000570200D000D0AA2797FDA095BA2FF7E07B
:100230006F2E712C812C912CEDB7FEB761827282EA
:1002400083829482BC01CD0120E030E040E050E0A8
:10025000EFEFEE2EE3E0FE2E012D112DAA24BB249C
:1002600065010E94EA0327E030E0261B370B30933C
:100270000101209300010F900F900F900F908FE0DD
:100280000E94570200D000D0AA2797FDA095BA2F50
:10029000EDB7FEB76182728283829482BC01CD0188
:1002A00020E030E040E050E00E94EA039B017093C0
:1002B000030160930201809100019091010143E0EC
:1002C000880F991F4A95E1F7820F931F880F991F96
:1002D000480E591EF201118210820F900F900F905C
:1002E0000F901F910F91FF90EF90DF90CF90BF90F4
:1002F000AF909F908F907F906F905F904F900895F8
:100300000E94E5000E948D0008951F93CF93DF9314
:1003100080E592E040E855E260E070E00E9464040D
:10032000C0E0D0E0FE01EA5EFE4F1081812F61E067
:100330000E94CF01FE01EA5FFE4F808161E00E94D2
:10034000CF01812F61E00E9422022296C031D105A7
:1003500049F720E030E041E050E00BC04193519379
:10036000019688309105D1F72F5F3F4F2830310536
:1003700059F0F90184E0EE0FFF1F8A95E1F7E85C80
:10038000FE4F80E090E0EACFDF91CF911F9108957A
:100390000E941B030E9485010E948001FDCF482F0F
:1003A00050E0CA0186569F4FFC0124914A575F4F87
:1003B000FA0184918823C1F0E82FF0E0EE0FFF1FCF
:1003C000E859FF4FA591B491662341F49FB7F89483
:1003D0008C91209582238C939FBF08959FB7F894AA
:1003E0008C91822B8C939FBF0895833071F0843061
:1003F00028F48130A1F0823021F514C08630B1F0AC
:100400008730D1F08430E9F404C0809180008F7788
:1004100003C0809180008F7D80938000089584B513
:100420008F7702C084B58F7D84BD08958091B00020
:100430008F778093B00008958091B0008F7D809376
:10044000B0000895FF920F931F93F62E482F50E0AF
:10045000CA0182559F4FFC012491CA0186569F4FC5
:10046000FC0114914A575F4FFA0104910023D9F01F
:10047000222319F0822F0E94F501E02FF0E0EE0F09
:10048000FF1FEE58FF4FA591B491FF2031F49FB7A5
:10049000F8948C911095812304C09FB7F8948C91A7
:1004A000812B8C939FBF1F910F91FF900895982FE0
:1004B0008E3008F09E509770809104018295880FCD
:1004C000880F807C892B80937C0080917A008064E7
:1004D00080937A0080917A0086FDFCCF209178008D
:1004E00040917900942F80E030E0282B392BC9010E
:1004F00008951F920F920FB60F9211242F933F93DE
:100500004F935F936F937F938F939F93AF93BF931B
:10051000EF93FF938091B8019091B901892B29F055
:10052000E091B801F091B9010995FF91EF91BF9168
:10053000AF919F918F917F916F915F914F913F917B
:100540002F910F900FBE0F901F9018951F920F9232
:100550000FB60F9211242F933F934F935F936F9396
:100560007F938F939F93AF93BF93EF93FF9380916C
:10057000BA019091BB01892B29F0E091BA01F09169
:10058000BB010995FF91EF91BF91AF919F918F9121
:100590007F916F915F914F913F912F910F900FBE7F
:1005A0000F901F9018951F920F920FB60F92112463
:1005B0002F933F938F939F93AF93BF938091C001ED
:1005C0009091C101A091C201B091C3013091C401C9
:1005D0000196A11DB11D232F2D5F2D3720F02D5722
:1005E0000196A11DB11D2093C4018093C001909379
:1005F000C101A093C201B093C3018091BC0190914D
:10060000BD01A091BE01B091BF010196A11DB11D18
:100610008093BC019093BD01A093BE01B093BF0134
:10062000BF91AF919F918F913F912F910F900FBEEE
:100630000F901F901895789484B5826084BD84B51E
:10064000816084BD85B5826085BD85B5816085BDCD
:10065000EEE6F0E0808181608083E1E8F0E01082E6
:10066000808182608083808181608083E0E8F0E027
:10067000808181608083E1EBF0E080818460808311
:10068000E0EBF0E0808181608083EAE7F0E0808148
:1006900084608083808182608083808181608083A8
:1006A0008081806880831092C1000895813041F07C
:1006B000813018F08230D1F409C010926E00089594
:1006C00080916F008D7F80936F00089580917000FE
:1006D0008D7F8093700081E08093B0008091B100A5
:1006E000887F84608093B1001092B30008951F93B7
:1006F000182F80910501811711F09FEF06C0E2ECE1
:10070000F0E094918FEF80930501892F0E945603AA
:10071000812F60E00E9422021F9108951F920F9284
:100720000FB60F9211242F933F934F935F936F93C4
:100730007F938F939F93AF93BF93EF93FF9380919A
:10074000C5019091C601A091C701B091C801009761
:10075000A105B10551F1E091C901F091CA01808173
:100760009091CB01892780838091C5019091C6012A
:10077000A091C701B091C801181619061A061B06E8
:10078000C4F48091C5019091C601A091C701B091B8
:10079000C8010197A109B1098093C5019093C601D1
:1007A000A093C701B093C80104C0809105010E94C5
:1007B0007703FF91EF91BF91AF919F918F917F91BF
:1007C0006F915F914F913F912F910F900FBE0F90BE
:1007D0001F9018952F923F924F925F926F927F9247
:1007E0008F929F92AF92BF92CF92DF92EF92FF9241
:1007F0000F931F93DF93CF93CDB7DEB73B014C012F
:1008000019012A016D897E898F89988D6A197B0962
:100810008C099D09621A730A840A950AA40193013E
:100820000E94A005E218F30804091509A801970120
:100830000E94E1052A0D3B1D4C1D5D1DB901CA0139
:10084000CF91DF911F910F91FF90EF90DF90CF90AC
:10085000BF90AF909F908F907F906F905F904F90E0
:100860003F902F9008951F920F920FB60F92112470
:100870002F933F934F938F939F93EF93FF934091C9
:10088000C600E0914C02F0914D0231969F012F7706
:100890003070319780914E0290914F02281739079E
:1008A00039F0E453FE4F408330934D0220934C02C5
:1008B000FF91EF919F918F914F913F912F910F90C9
:1008C0000FBE0F901F901895CF93DF93EC019A0104
:1008D000AB01E885F985203081EE380780E04807D4
:1008E00080E0580709F449C081E090E00A8802C01E
:1008F000880F991F0A94E2F7808360E079E08DE326
:1009000090E00E94E1052150304040405040CA0133
:10091000B90122E030E040E050E00E94E105EC81C6
:10092000FD813083EE81FF812083EA85FB85208174
:1009300041E050E0CA010E8402C0880F991F0A945A
:10094000E2F7282B2083EA85FB852081CA010F84EA
:1009500002C0880F991F0A94E2F7282B2083EA85AA
:10096000FB858081088802C0440F551F0A94E2F776
:10097000842B8083DF91CF910895108220E130E0B5
:10098000CECFDC011296ED91FC911397E058FF4F0A
:100990002191319180819181281B390B2F77307003
:1009A000C9010895DC011296ED91FC911397EE5761
:1009B000FF4F2081318192918291E058F04082175F
:1009C000930719F42FEF3FEF05C0E20FF31F80816B
:1009D000282F30E0C9010895DC011296ED91FC91B9
:1009E0001397DF01AE57BF4F2D913C911197E058FF
:1009F000FF4F80819181E058F0408217930719F4EE
:100A00002FEF3FEF0BC0E20FF31F80812F5F3F4FAF
:100A10002F7730702D933C93282F30E0C901089533
:100A2000DC011296ED91FC911397EE57FF4F8081F8
:100A30009181929382930895FC01A085B1852189CB
:100A40008C9190E0022E02C0959587950A94E2F76A
:100A500080FFF6CF0484F585E02D608308958AE257
:100A600091E090935102809350028CEC91E090932E
:100A700053028093520285EC90E09093550280934C
:100A8000540284EC90E0909357028093560280ECDD
:100A900090E0909359028093580281EC90E09093FB
:100AA0005B0280935A0286EC90E090935D02809303
:100AB0005C0284E080935E0283E080935F0287E0C3
:100AC0008093600285E08093610281E080936202FE
:100AD00008950F931F93CF93DF938C01EB0109C00F
:100AE0002196D801ED91FC910190F081E02DC80193
:100AF000099568816623A1F7DF91CF911F910F912E
:100B00000895EF92FF920F931F93CF93DF938C0181
:100B10007B01EA010CC0D7016D917D01D801ED91F7
:100B2000FC910190F081E02DC80109952197209753
:100B300091F7DF91CF911F910F91FF90EF90089562
:100B4000629FD001739FF001829FE00DF11D649FB1
:100B5000E00DF11D929FF00D839FF00D749FF00D3D
:100B6000659FF00D9927729FB00DE11DF91F639FDE
:100B7000B00DE11DF91FBD01CF0111240895A1E2BF
:100B80001A2EAA1BBB1BFD010DC0AA1FBB1FEE1F07
:100B9000FF1FA217B307E407F50720F0A21BB30B52
:100BA000E40BF50B661F771F881F991F1A9469F7CE
:100BB00060957095809590959B01AC01BD01CF012A
:100BC000089597FB092E05260ED057FD04D0D7DFD8
:100BD0000AD0001C38F450954095309521953F4F30
:100BE0004F4F5F4F0895F6F79095809570956195FA
:100BF0007F4F8F4F9F4F0895EE0FFF1F0590F49189
:080C0000E02D0994F894FFCFE8
:100C08000500050001FF02000700130005000D00A4
:100C180012000C00100006000B000A00030011006F
:100C2800040008000900000000001C056905810592
:080C3800C104EC04D204100514
:00000001FF
